{
  "_format": "hh-sol-artifact-1",
  "contractName": "CertificateNFT",
  "sourceName": "contracts/Learnable22Nfts.sol",
  "abi": [
    {
      "inputs": [],
      "stateMutability": "nonpayable",
      "type": "constructor"
    },
    {
      "anonymous": false,
      "inputs": [
        {
          "indexed": true,
          "internalType": "address",
          "name": "owner",
          "type": "address"
        },
        {
          "indexed": true,
          "internalType": "address",
          "name": "approved",
          "type": "address"
        },
        {
          "indexed": true,
          "internalType": "uint256",
          "name": "tokenId",
          "type": "uint256"
        }
      ],
      "name": "Approval",
      "type": "event"
    },
    {
      "anonymous": false,
      "inputs": [
        {
          "indexed": true,
          "internalType": "address",
          "name": "owner",
          "type": "address"
        },
        {
          "indexed": true,
          "internalType": "address",
          "name": "operator",
          "type": "address"
        },
        {
          "indexed": false,
          "internalType": "bool",
          "name": "approved",
          "type": "bool"
        }
      ],
      "name": "ApprovalForAll",
      "type": "event"
    },
    {
      "anonymous": false,
      "inputs": [
        {
          "indexed": false,
          "internalType": "uint256",
          "name": "_fromTokenId",
          "type": "uint256"
        },
        {
          "indexed": false,
          "internalType": "uint256",
          "name": "_toTokenId",
          "type": "uint256"
        }
      ],
      "name": "BatchMetadataUpdate",
      "type": "event"
    },
    {
      "anonymous": false,
      "inputs": [
        {
          "indexed": true,
          "internalType": "uint256",
          "name": "tokenId",
          "type": "uint256"
        }
      ],
      "name": "CertificateClaimed",
      "type": "event"
    },
    {
      "anonymous": false,
      "inputs": [
        {
          "indexed": false,
          "internalType": "uint256",
          "name": "_tokenId",
          "type": "uint256"
        }
      ],
      "name": "MetadataUpdate",
      "type": "event"
    },
    {
      "anonymous": false,
      "inputs": [
        {
          "indexed": true,
          "internalType": "address",
          "name": "from",
          "type": "address"
        },
        {
          "indexed": true,
          "internalType": "address",
          "name": "to",
          "type": "address"
        },
        {
          "indexed": true,
          "internalType": "uint256",
          "name": "tokenId",
          "type": "uint256"
        }
      ],
      "name": "Transfer",
      "type": "event"
    },
    {
      "inputs": [
        {
          "internalType": "address",
          "name": "to",
          "type": "address"
        },
        {
          "internalType": "uint256",
          "name": "tokenId",
          "type": "uint256"
        }
      ],
      "name": "approve",
      "outputs": [],
      "stateMutability": "nonpayable",
      "type": "function"
    },
    {
      "inputs": [
        {
          "internalType": "address",
          "name": "owner",
          "type": "address"
        }
      ],
      "name": "balanceOf",
      "outputs": [
        {
          "internalType": "uint256",
          "name": "",
          "type": "uint256"
        }
      ],
      "stateMutability": "view",
      "type": "function"
    },
    {
      "inputs": [
        {
          "internalType": "address",
          "name": "recipient",
          "type": "address"
        },
        {
          "internalType": "string",
          "name": "tokenURI",
          "type": "string"
        }
      ],
      "name": "claimCertificate",
      "outputs": [
        {
          "internalType": "uint256",
          "name": "",
          "type": "uint256"
        }
      ],
      "stateMutability": "nonpayable",
      "type": "function"
    },
    {
      "inputs": [
        {
          "internalType": "uint256",
          "name": "tokenId",
          "type": "uint256"
        }
      ],
      "name": "getApproved",
      "outputs": [
        {
          "internalType": "address",
          "name": "",
          "type": "address"
        }
      ],
      "stateMutability": "view",
      "type": "function"
    },
    {
      "inputs": [
        {
          "internalType": "address",
          "name": "owner",
          "type": "address"
        },
        {
          "internalType": "address",
          "name": "operator",
          "type": "address"
        }
      ],
      "name": "isApprovedForAll",
      "outputs": [
        {
          "internalType": "bool",
          "name": "",
          "type": "bool"
        }
      ],
      "stateMutability": "view",
      "type": "function"
    },
    {
      "inputs": [],
      "name": "name",
      "outputs": [
        {
          "internalType": "string",
          "name": "",
          "type": "string"
        }
      ],
      "stateMutability": "view",
      "type": "function"
    },
    {
      "inputs": [
        {
          "internalType": "uint256",
          "name": "tokenId",
          "type": "uint256"
        }
      ],
      "name": "ownerOf",
      "outputs": [
        {
          "internalType": "address",
          "name": "",
          "type": "address"
        }
      ],
      "stateMutability": "view",
      "type": "function"
    },
    {
      "inputs": [
        {
          "internalType": "address",
          "name": "from",
          "type": "address"
        },
        {
          "internalType": "address",
          "name": "to",
          "type": "address"
        },
        {
          "internalType": "uint256",
          "name": "tokenId",
          "type": "uint256"
        }
      ],
      "name": "safeTransferFrom",
      "outputs": [],
      "stateMutability": "nonpayable",
      "type": "function"
    },
    {
      "inputs": [
        {
          "internalType": "address",
          "name": "from",
          "type": "address"
        },
        {
          "internalType": "address",
          "name": "to",
          "type": "address"
        },
        {
          "internalType": "uint256",
          "name": "tokenId",
          "type": "uint256"
        },
        {
          "internalType": "bytes",
          "name": "data",
          "type": "bytes"
        }
      ],
      "name": "safeTransferFrom",
      "outputs": [],
      "stateMutability": "nonpayable",
      "type": "function"
    },
    {
      "inputs": [
        {
          "internalType": "address",
          "name": "operator",
          "type": "address"
        },
        {
          "internalType": "bool",
          "name": "approved",
          "type": "bool"
        }
      ],
      "name": "setApprovalForAll",
      "outputs": [],
      "stateMutability": "nonpayable",
      "type": "function"
    },
    {
      "inputs": [
        {
          "internalType": "bytes4",
          "name": "interfaceId",
          "type": "bytes4"
        }
      ],
      "name": "supportsInterface",
      "outputs": [
        {
          "internalType": "bool",
          "name": "",
          "type": "bool"
        }
      ],
      "stateMutability": "view",
      "type": "function"
    },
    {
      "inputs": [],
      "name": "symbol",
      "outputs": [
        {
          "internalType": "string",
          "name": "",
          "type": "string"
        }
      ],
      "stateMutability": "view",
      "type": "function"
    },
    {
      "inputs": [
        {
          "internalType": "uint256",
          "name": "tokenId",
          "type": "uint256"
        }
      ],
      "name": "tokenURI",
      "outputs": [
        {
          "internalType": "string",
          "name": "",
          "type": "string"
        }
      ],
      "stateMutability": "view",
      "type": "function"
    },
    {
      "inputs": [
        {
          "internalType": "address",
          "name": "from",
          "type": "address"
        },
        {
          "internalType": "address",
          "name": "to",
          "type": "address"
        },
        {
          "internalType": "uint256",
          "name": "tokenId",
          "type": "uint256"
        }
      ],
      "name": "transferFrom",
      "outputs": [],
      "stateMutability": "nonpayable",
      "type": "function"
    }
  ],
  "bytecode": "0x60806040523480156200001157600080fd5b506040518060400160405280600f81526020017f4c6561726e61626c6532324e66747300000000000000000000000000000000008152506040518060400160405280600381526020017f4c3232000000000000000000000000000000000000000000000000000000000081525081600090816200008f91906200041f565b508060019081620000a191906200041f565b505050620000d36040518060600160405280603b8152602001620031a1603b9139620000d960201b62000a321760201c565b620005b9565b6200017981604051602401620000f0919062000595565b6040516020818303038152906040527f41304fac000000000000000000000000000000000000000000000000000000007bffffffffffffffffffffffffffffffffffffffffffffffffffffffff19166020820180517bffffffffffffffffffffffffffffffffffffffffffffffffffffffff83818316178352505050506200017c60201b60201c565b50565b60008151905060006a636f6e736f6c652e6c6f679050602083016000808483855afa5050505050565b600081519050919050565b7f4e487b7100000000000000000000000000000000000000000000000000000000600052604160045260246000fd5b7f4e487b7100000000000000000000000000000000000000000000000000000000600052602260045260246000fd5b600060028204905060018216806200022757607f821691505b6020821081036200023d576200023c620001df565b5b50919050565b60008190508160005260206000209050919050565b60006020601f8301049050919050565b600082821b905092915050565b600060088302620002a77fffffffffffffffffffffffffffffffffffffffffffffffffffffffffffffffff8262000268565b620002b3868362000268565b95508019841693508086168417925050509392505050565b6000819050919050565b6000819050919050565b600062000300620002fa620002f484620002cb565b620002d5565b620002cb565b9050919050565b6000819050919050565b6200031c83620002df565b620003346200032b8262000307565b84845462000275565b825550505050565b600090565b6200034b6200033c565b6200035881848462000311565b505050565b5b8181101562000380576200037460008262000341565b6001810190506200035e565b5050565b601f821115620003cf57620003998162000243565b620003a48462000258565b81016020851015620003b4578190505b620003cc620003c38562000258565b8301826200035d565b50505b505050565b600082821c905092915050565b6000620003f460001984600802620003d4565b1980831691505092915050565b60006200040f8383620003e1565b9150826002028217905092915050565b6200042a82620001a5565b67ffffffffffffffff811115620004465762000445620001b0565b5b6200045282546200020e565b6200045f82828562000384565b600060209050601f83116001811462000497576000841562000482578287015190505b6200048e858262000401565b865550620004fe565b601f198416620004a78662000243565b60005b82811015620004d157848901518255600182019150602085019450602081019050620004aa565b86831015620004f15784890151620004ed601f891682620003e1565b8355505b6001600288020188555050505b505050505050565b600082825260208201905092915050565b60005b83811015620005375780820151818401526020810190506200051a565b60008484015250505050565b6000601f19601f8301169050919050565b60006200056182620001a5565b6200056d818562000506565b93506200057f81856020860162000517565b6200058a8162000543565b840191505092915050565b60006020820190508181036000830152620005b1818462000554565b905092915050565b612bd880620005c96000396000f3fe608060405234801561001057600080fd5b50600436106100ea5760003560e01c80636352211e1161008c578063a22cb46511610066578063a22cb4651461026f578063b88d4fde1461028b578063c87b56dd146102a7578063e985e9c5146102d7576100ea565b80636352211e146101f157806370a082311461022157806395d89b4114610251576100ea565b8063095ea7b3116100c8578063095ea7b31461016d57806323b872dd14610189578063305ca49c146101a557806342842e0e146101d5576100ea565b806301ffc9a7146100ef57806306fdde031461011f578063081812fc1461013d575b600080fd5b61010960048036038101906101049190611ac7565b610307565b6040516101169190611b0f565b60405180910390f35b610127610368565b6040516101349190611bba565b60405180910390f35b61015760048036038101906101529190611c12565b6103fa565b6040516101649190611c80565b60405180910390f35b61018760048036038101906101829190611cc7565b610440565b005b6101a3600480360381019061019e9190611d07565b610557565b005b6101bf60048036038101906101ba9190611e8f565b6105b7565b6040516101cc9190611efa565b60405180910390f35b6101ef60048036038101906101ea9190611d07565b610625565b005b61020b60048036038101906102069190611c12565b610645565b6040516102189190611c80565b60405180910390f35b61023b60048036038101906102369190611f15565b6106cb565b6040516102489190611efa565b60405180910390f35b610259610782565b6040516102669190611bba565b60405180910390f35b61028960048036038101906102849190611f6e565b610814565b005b6102a560048036038101906102a0919061204f565b61082a565b005b6102c160048036038101906102bc9190611c12565b61088c565b6040516102ce9190611bba565b60405180910390f35b6102f160048036038101906102ec91906120d2565b61099e565b6040516102fe9190611b0f565b60405180910390f35b6000634906490660e01b7bffffffffffffffffffffffffffffffffffffffffffffffffffffffff1916827bffffffffffffffffffffffffffffffffffffffffffffffffffffffff19161480610361575061036082610acb565b5b9050919050565b60606000805461037790612141565b80601f01602080910402602001604051908101604052809291908181526020018280546103a390612141565b80156103f05780601f106103c5576101008083540402835291602001916103f0565b820191906000526020600020905b8154815290600101906020018083116103d357829003601f168201915b5050505050905090565b600061040582610bad565b6004600083815260200190815260200160002060009054906101000a900473ffffffffffffffffffffffffffffffffffffffff169050919050565b600061044b82610645565b90508073ffffffffffffffffffffffffffffffffffffffff168373ffffffffffffffffffffffffffffffffffffffff16036104bb576040517f08c379a00000000000000000000000000000000000000000000000000000000081526004016104b2906121e4565b60405180910390fd5b8073ffffffffffffffffffffffffffffffffffffffff166104da610bf8565b73ffffffffffffffffffffffffffffffffffffffff161480610509575061050881610503610bf8565b61099e565b5b610548576040517f08c379a000000000000000000000000000000000000000000000000000000000815260040161053f90612276565b60405180910390fd5b6105528383610c00565b505050565b610568610562610bf8565b82610cb9565b6105a7576040517f08c379a000000000000000000000000000000000000000000000000000000000815260040161059e90612308565b60405180910390fd5b6105b2838383610d4e565b505050565b60006105c36007611047565b60006105cf600761105d565b90506105db848261106b565b6105e58184611288565b6105ee83610a32565b807f316a266e8928f9f8c9070f556342220bc50698491886bae4abf36ebffe08bbdb60405160405180910390a28091505092915050565b6106408383836040518060200160405280600081525061082a565b505050565b6000806106518361132c565b9050600073ffffffffffffffffffffffffffffffffffffffff168173ffffffffffffffffffffffffffffffffffffffff16036106c2576040517f08c379a00000000000000000000000000000000000000000000000000000000081526004016106b990612374565b60405180910390fd5b80915050919050565b60008073ffffffffffffffffffffffffffffffffffffffff168273ffffffffffffffffffffffffffffffffffffffff160361073b576040517f08c379a000000000000000000000000000000000000000000000000000000000815260040161073290612406565b60405180910390fd5b600360008373ffffffffffffffffffffffffffffffffffffffff1673ffffffffffffffffffffffffffffffffffffffff168152602001908152602001600020549050919050565b60606001805461079190612141565b80601f01602080910402602001604051908101604052809291908181526020018280546107bd90612141565b801561080a5780601f106107df5761010080835404028352916020019161080a565b820191906000526020600020905b8154815290600101906020018083116107ed57829003601f168201915b5050505050905090565b61082661081f610bf8565b8383611369565b5050565b61083b610835610bf8565b83610cb9565b61087a576040517f08c379a000000000000000000000000000000000000000000000000000000000815260040161087190612308565b60405180910390fd5b610886848484846114d5565b50505050565b606061089782610bad565b60006006600084815260200190815260200160002080546108b790612141565b80601f01602080910402602001604051908101604052809291908181526020018280546108e390612141565b80156109305780601f1061090557610100808354040283529160200191610930565b820191906000526020600020905b81548152906001019060200180831161091357829003601f168201915b505050505090506000610941611531565b90506000815103610956578192505050610999565b60008251111561098b578082604051602001610973929190612462565b60405160208183030381529060405292505050610999565b61099484611548565b925050505b919050565b6000600560008473ffffffffffffffffffffffffffffffffffffffff1673ffffffffffffffffffffffffffffffffffffffff16815260200190815260200160002060008373ffffffffffffffffffffffffffffffffffffffff1673ffffffffffffffffffffffffffffffffffffffff16815260200190815260200160002060009054906101000a900460ff16905092915050565b610ac881604051602401610a469190611bba565b6040516020818303038152906040527f41304fac000000000000000000000000000000000000000000000000000000007bffffffffffffffffffffffffffffffffffffffffffffffffffffffff19166020820180517bffffffffffffffffffffffffffffffffffffffffffffffffffffffff83818316178352505050506115b0565b50565b60007f80ac58cd000000000000000000000000000000000000000000000000000000007bffffffffffffffffffffffffffffffffffffffffffffffffffffffff1916827bffffffffffffffffffffffffffffffffffffffffffffffffffffffff19161480610b9657507f5b5e139f000000000000000000000000000000000000000000000000000000007bffffffffffffffffffffffffffffffffffffffffffffffffffffffff1916827bffffffffffffffffffffffffffffffffffffffffffffffffffffffff1916145b80610ba65750610ba5826115d9565b5b9050919050565b610bb681611643565b610bf5576040517f08c379a0000000000000000000000000000000000000000000000000000000008152600401610bec90612374565b60405180910390fd5b50565b600033905090565b816004600083815260200190815260200160002060006101000a81548173ffffffffffffffffffffffffffffffffffffffff021916908373ffffffffffffffffffffffffffffffffffffffff160217905550808273ffffffffffffffffffffffffffffffffffffffff16610c7383610645565b73ffffffffffffffffffffffffffffffffffffffff167f8c5be1e5ebec7d5bd14f71427d1e84f3dd0314c0f7b2291e5b200ac8c7c3b92560405160405180910390a45050565b600080610cc583610645565b90508073ffffffffffffffffffffffffffffffffffffffff168473ffffffffffffffffffffffffffffffffffffffff161480610d075750610d06818561099e565b5b80610d4557508373ffffffffffffffffffffffffffffffffffffffff16610d2d846103fa565b73ffffffffffffffffffffffffffffffffffffffff16145b91505092915050565b8273ffffffffffffffffffffffffffffffffffffffff16610d6e82610645565b73ffffffffffffffffffffffffffffffffffffffff1614610dc4576040517f08c379a0000000000000000000000000000000000000000000000000000000008152600401610dbb906124f8565b60405180910390fd5b600073ffffffffffffffffffffffffffffffffffffffff168273ffffffffffffffffffffffffffffffffffffffff1603610e33576040517f08c379a0000000000000000000000000000000000000000000000000000000008152600401610e2a9061258a565b60405180910390fd5b610e408383836001611684565b8273ffffffffffffffffffffffffffffffffffffffff16610e6082610645565b73ffffffffffffffffffffffffffffffffffffffff1614610eb6576040517f08c379a0000000000000000000000000000000000000000000000000000000008152600401610ead906124f8565b60405180910390fd5b6004600082815260200190815260200160002060006101000a81549073ffffffffffffffffffffffffffffffffffffffff02191690556001600360008573ffffffffffffffffffffffffffffffffffffffff1673ffffffffffffffffffffffffffffffffffffffff168152602001908152602001600020600082825403925050819055506001600360008473ffffffffffffffffffffffffffffffffffffffff1673ffffffffffffffffffffffffffffffffffffffff16815260200190815260200160002060008282540192505081905550816002600083815260200190815260200160002060006101000a81548173ffffffffffffffffffffffffffffffffffffffff021916908373ffffffffffffffffffffffffffffffffffffffff160217905550808273ffffffffffffffffffffffffffffffffffffffff168473ffffffffffffffffffffffffffffffffffffffff167fddf252ad1be2c89b69c2b068fc378daa952ba7f163c4a11628f55a4df523b3ef60405160405180910390a4611042838383600161168a565b505050565b6001816000016000828254019250508190555050565b600081600001549050919050565b600073ffffffffffffffffffffffffffffffffffffffff168273ffffffffffffffffffffffffffffffffffffffff16036110da576040517f08c379a00000000000000000000000000000000000000000000000000000000081526004016110d1906125f6565b60405180910390fd5b6110e381611643565b15611123576040517f08c379a000000000000000000000000000000000000000000000000000000000815260040161111a90612662565b60405180910390fd5b611131600083836001611684565b61113a81611643565b1561117a576040517f08c379a000000000000000000000000000000000000000000000000000000000815260040161117190612662565b60405180910390fd5b6001600360008473ffffffffffffffffffffffffffffffffffffffff1673ffffffffffffffffffffffffffffffffffffffff16815260200190815260200160002060008282540192505081905550816002600083815260200190815260200160002060006101000a81548173ffffffffffffffffffffffffffffffffffffffff021916908373ffffffffffffffffffffffffffffffffffffffff160217905550808273ffffffffffffffffffffffffffffffffffffffff16600073ffffffffffffffffffffffffffffffffffffffff167fddf252ad1be2c89b69c2b068fc378daa952ba7f163c4a11628f55a4df523b3ef60405160405180910390a461128460008383600161168a565b5050565b61129182611643565b6112d0576040517f08c379a00000000000000000000000000000000000000000000000000000000081526004016112c7906126f4565b60405180910390fd5b806006600084815260200190815260200160002090816112f091906128c0565b507ff8e1a15aba9398e019f0b49df1a4fde98ee17ae345cb5f6b5e2c27f5033e8ce7826040516113209190611efa565b60405180910390a15050565b60006002600083815260200190815260200160002060009054906101000a900473ffffffffffffffffffffffffffffffffffffffff169050919050565b8173ffffffffffffffffffffffffffffffffffffffff168373ffffffffffffffffffffffffffffffffffffffff16036113d7576040517f08c379a00000000000000000000000000000000000000000000000000000000081526004016113ce906129de565b60405180910390fd5b80600560008573ffffffffffffffffffffffffffffffffffffffff1673ffffffffffffffffffffffffffffffffffffffff16815260200190815260200160002060008473ffffffffffffffffffffffffffffffffffffffff1673ffffffffffffffffffffffffffffffffffffffff16815260200190815260200160002060006101000a81548160ff0219169083151502179055508173ffffffffffffffffffffffffffffffffffffffff168373ffffffffffffffffffffffffffffffffffffffff167f17307eab39ab6107e8899845ad3d59bd9653f200f220920489ca2b5937696c31836040516114c89190611b0f565b60405180910390a3505050565b6114e0848484610d4e565b6114ec84848484611690565b61152b576040517f08c379a000000000000000000000000000000000000000000000000000000000815260040161152290612a70565b60405180910390fd5b50505050565b606060405180602001604052806000815250905090565b606061155382610bad565b600061155d611531565b9050600081511161157d57604051806020016040528060008152506115a8565b8061158784611817565b604051602001611598929190612462565b6040516020818303038152906040525b915050919050565b60008151905060006a636f6e736f6c652e6c6f679050602083016000808483855afa5050505050565b60007f01ffc9a7000000000000000000000000000000000000000000000000000000007bffffffffffffffffffffffffffffffffffffffffffffffffffffffff1916827bffffffffffffffffffffffffffffffffffffffffffffffffffffffff1916149050919050565b60008073ffffffffffffffffffffffffffffffffffffffff166116658361132c565b73ffffffffffffffffffffffffffffffffffffffff1614159050919050565b50505050565b50505050565b60006116b18473ffffffffffffffffffffffffffffffffffffffff166118e5565b1561180a578373ffffffffffffffffffffffffffffffffffffffff1663150b7a026116da610bf8565b8786866040518563ffffffff1660e01b81526004016116fc9493929190612ae5565b6020604051808303816000875af192505050801561173857506040513d601f19601f820116820180604052508101906117359190612b46565b60015b6117ba573d8060008114611768576040519150601f19603f3d011682016040523d82523d6000602084013e61176d565b606091505b5060008151036117b2576040517f08c379a00000000000000000000000000000000000000000000000000000000081526004016117a990612a70565b60405180910390fd5b805181602001fd5b63150b7a0260e01b7bffffffffffffffffffffffffffffffffffffffffffffffffffffffff1916817bffffffffffffffffffffffffffffffffffffffffffffffffffffffff19161491505061180f565b600190505b949350505050565b60606000600161182684611908565b01905060008167ffffffffffffffff81111561184557611844611d64565b5b6040519080825280601f01601f1916602001820160405280156118775781602001600182028036833780820191505090505b509050600082602001820190505b6001156118da578080600190039150507f3031323334353637383961626364656600000000000000000000000000000000600a86061a8153600a85816118ce576118cd612b73565b5b04945060008503611885575b819350505050919050565b6000808273ffffffffffffffffffffffffffffffffffffffff163b119050919050565b600080600090507a184f03e93ff9f4daa797ed6e38ed64bf6a1f0100000000000000008310611966577a184f03e93ff9f4daa797ed6e38ed64bf6a1f010000000000000000838161195c5761195b612b73565b5b0492506040810190505b6d04ee2d6d415b85acef810000000083106119a3576d04ee2d6d415b85acef8100000000838161199957611998612b73565b5b0492506020810190505b662386f26fc1000083106119d257662386f26fc1000083816119c8576119c7612b73565b5b0492506010810190505b6305f5e10083106119fb576305f5e10083816119f1576119f0612b73565b5b0492506008810190505b6127108310611a20576127108381611a1657611a15612b73565b5b0492506004810190505b60648310611a435760648381611a3957611a38612b73565b5b0492506002810190505b600a8310611a52576001810190505b80915050919050565b6000604051905090565b600080fd5b600080fd5b60007fffffffff0000000000000000000000000000000000000000000000000000000082169050919050565b611aa481611a6f565b8114611aaf57600080fd5b50565b600081359050611ac181611a9b565b92915050565b600060208284031215611add57611adc611a65565b5b6000611aeb84828501611ab2565b91505092915050565b60008115159050919050565b611b0981611af4565b82525050565b6000602082019050611b246000830184611b00565b92915050565b600081519050919050565b600082825260208201905092915050565b60005b83811015611b64578082015181840152602081019050611b49565b60008484015250505050565b6000601f19601f8301169050919050565b6000611b8c82611b2a565b611b968185611b35565b9350611ba6818560208601611b46565b611baf81611b70565b840191505092915050565b60006020820190508181036000830152611bd48184611b81565b905092915050565b6000819050919050565b611bef81611bdc565b8114611bfa57600080fd5b50565b600081359050611c0c81611be6565b92915050565b600060208284031215611c2857611c27611a65565b5b6000611c3684828501611bfd565b91505092915050565b600073ffffffffffffffffffffffffffffffffffffffff82169050919050565b6000611c6a82611c3f565b9050919050565b611c7a81611c5f565b82525050565b6000602082019050611c956000830184611c71565b92915050565b611ca481611c5f565b8114611caf57600080fd5b50565b600081359050611cc181611c9b565b92915050565b60008060408385031215611cde57611cdd611a65565b5b6000611cec85828601611cb2565b9250506020611cfd85828601611bfd565b9150509250929050565b600080600060608486031215611d2057611d1f611a65565b5b6000611d2e86828701611cb2565b9350506020611d3f86828701611cb2565b9250506040611d5086828701611bfd565b9150509250925092565b600080fd5b600080fd5b7f4e487b7100000000000000000000000000000000000000000000000000000000600052604160045260246000fd5b611d9c82611b70565b810181811067ffffffffffffffff82111715611dbb57611dba611d64565b5b80604052505050565b6000611dce611a5b565b9050611dda8282611d93565b919050565b600067ffffffffffffffff821115611dfa57611df9611d64565b5b611e0382611b70565b9050602081019050919050565b82818337600083830152505050565b6000611e32611e2d84611ddf565b611dc4565b905082815260208101848484011115611e4e57611e4d611d5f565b5b611e59848285611e10565b509392505050565b600082601f830112611e7657611e75611d5a565b5b8135611e86848260208601611e1f565b91505092915050565b60008060408385031215611ea657611ea5611a65565b5b6000611eb485828601611cb2565b925050602083013567ffffffffffffffff811115611ed557611ed4611a6a565b5b611ee185828601611e61565b9150509250929050565b611ef481611bdc565b82525050565b6000602082019050611f0f6000830184611eeb565b92915050565b600060208284031215611f2b57611f2a611a65565b5b6000611f3984828501611cb2565b91505092915050565b611f4b81611af4565b8114611f5657600080fd5b50565b600081359050611f6881611f42565b92915050565b60008060408385031215611f8557611f84611a65565b5b6000611f9385828601611cb2565b9250506020611fa485828601611f59565b9150509250929050565b600067ffffffffffffffff821115611fc957611fc8611d64565b5b611fd282611b70565b9050602081019050919050565b6000611ff2611fed84611fae565b611dc4565b90508281526020810184848401111561200e5761200d611d5f565b5b612019848285611e10565b509392505050565b600082601f83011261203657612035611d5a565b5b8135612046848260208601611fdf565b91505092915050565b6000806000806080858703121561206957612068611a65565b5b600061207787828801611cb2565b945050602061208887828801611cb2565b935050604061209987828801611bfd565b925050606085013567ffffffffffffffff8111156120ba576120b9611a6a565b5b6120c687828801612021565b91505092959194509250565b600080604083850312156120e9576120e8611a65565b5b60006120f785828601611cb2565b925050602061210885828601611cb2565b9150509250929050565b7f4e487b7100000000000000000000000000000000000000000000000000000000600052602260045260246000fd5b6000600282049050600182168061215957607f821691505b60208210810361216c5761216b612112565b5b50919050565b7f4552433732313a20617070726f76616c20746f2063757272656e74206f776e6560008201527f7200000000000000000000000000000000000000000000000000000000000000602082015250565b60006121ce602183611b35565b91506121d982612172565b604082019050919050565b600060208201905081810360008301526121fd816121c1565b9050919050565b7f4552433732313a20617070726f76652063616c6c6572206973206e6f7420746f60008201527f6b656e206f776e6572206f7220617070726f76656420666f7220616c6c000000602082015250565b6000612260603d83611b35565b915061226b82612204565b604082019050919050565b6000602082019050818103600083015261228f81612253565b9050919050565b7f4552433732313a2063616c6c6572206973206e6f7420746f6b656e206f776e6560008201527f72206f7220617070726f76656400000000000000000000000000000000000000602082015250565b60006122f2602d83611b35565b91506122fd82612296565b604082019050919050565b60006020820190508181036000830152612321816122e5565b9050919050565b7f4552433732313a20696e76616c696420746f6b656e2049440000000000000000600082015250565b600061235e601883611b35565b915061236982612328565b602082019050919050565b6000602082019050818103600083015261238d81612351565b9050919050565b7f4552433732313a2061646472657373207a65726f206973206e6f74206120766160008201527f6c6964206f776e65720000000000000000000000000000000000000000000000602082015250565b60006123f0602983611b35565b91506123fb82612394565b604082019050919050565b6000602082019050818103600083015261241f816123e3565b9050919050565b600081905092915050565b600061243c82611b2a565b6124468185612426565b9350612456818560208601611b46565b80840191505092915050565b600061246e8285612431565b915061247a8284612431565b91508190509392505050565b7f4552433732313a207472616e736665722066726f6d20696e636f72726563742060008201527f6f776e6572000000000000000000000000000000000000000000000000000000602082015250565b60006124e2602583611b35565b91506124ed82612486565b604082019050919050565b60006020820190508181036000830152612511816124d5565b9050919050565b7f4552433732313a207472616e7366657220746f20746865207a65726f2061646460008201527f7265737300000000000000000000000000000000000000000000000000000000602082015250565b6000612574602483611b35565b915061257f82612518565b604082019050919050565b600060208201905081810360008301526125a381612567565b9050919050565b7f4552433732313a206d696e7420746f20746865207a65726f2061646472657373600082015250565b60006125e0602083611b35565b91506125eb826125aa565b602082019050919050565b6000602082019050818103600083015261260f816125d3565b9050919050565b7f4552433732313a20746f6b656e20616c7265616479206d696e74656400000000600082015250565b600061264c601c83611b35565b915061265782612616565b602082019050919050565b6000602082019050818103600083015261267b8161263f565b9050919050565b7f45524337323155524953746f726167653a2055524920736574206f66206e6f6e60008201527f6578697374656e7420746f6b656e000000000000000000000000000000000000602082015250565b60006126de602e83611b35565b91506126e982612682565b604082019050919050565b6000602082019050818103600083015261270d816126d1565b9050919050565b60008190508160005260206000209050919050565b60006020601f8301049050919050565b600082821b905092915050565b6000600883026127767fffffffffffffffffffffffffffffffffffffffffffffffffffffffffffffffff82612739565b6127808683612739565b95508019841693508086168417925050509392505050565b6000819050919050565b60006127bd6127b86127b384611bdc565b612798565b611bdc565b9050919050565b6000819050919050565b6127d7836127a2565b6127eb6127e3826127c4565b848454612746565b825550505050565b600090565b6128006127f3565b61280b8184846127ce565b505050565b5b8181101561282f576128246000826127f8565b600181019050612811565b5050565b601f8211156128745761284581612714565b61284e84612729565b8101602085101561285d578190505b61287161286985612729565b830182612810565b50505b505050565b600082821c905092915050565b600061289760001984600802612879565b1980831691505092915050565b60006128b08383612886565b9150826002028217905092915050565b6128c982611b2a565b67ffffffffffffffff8111156128e2576128e1611d64565b5b6128ec8254612141565b6128f7828285612833565b600060209050601f83116001811461292a5760008415612918578287015190505b61292285826128a4565b86555061298a565b601f19841661293886612714565b60005b828110156129605784890151825560018201915060208501945060208101905061293b565b8683101561297d5784890151612979601f891682612886565b8355505b6001600288020188555050505b505050505050565b7f4552433732313a20617070726f766520746f2063616c6c657200000000000000600082015250565b60006129c8601983611b35565b91506129d382612992565b602082019050919050565b600060208201905081810360008301526129f7816129bb565b9050919050565b7f4552433732313a207472616e7366657220746f206e6f6e20455243373231526560008201527f63656976657220696d706c656d656e7465720000000000000000000000000000602082015250565b6000612a5a603283611b35565b9150612a65826129fe565b604082019050919050565b60006020820190508181036000830152612a8981612a4d565b9050919050565b600081519050919050565b600082825260208201905092915050565b6000612ab782612a90565b612ac18185612a9b565b9350612ad1818560208601611b46565b612ada81611b70565b840191505092915050565b6000608082019050612afa6000830187611c71565b612b076020830186611c71565b612b146040830185611eeb565b8181036060830152612b268184612aac565b905095945050505050565b600081519050612b4081611a9b565b92915050565b600060208284031215612b5c57612b5b611a65565b5b6000612b6a84828501612b31565b91505092915050565b7f4e487b7100000000000000000000000000000000000000000000000000000000600052601260045260246000fdfea26469706673582212200b03e379649e5fa198addfa9c8f8b2f14a7d427ce02d182efe08b68c713dd54d64736f6c634300081100335468697320697320746865206669727374206c6561726e61626c65207765623320696e7465726e73686970206e6674206365727469666963617465",
  "linkReferences": {},
  "deployedLinkReferences": {}
}